:060000000A128A110C280F
:10000800FE00030EF0000A08F1000A128A11B02F50
:100018000A128A110F288317E930FD001D30FE00EF
:10002800CE30FF00CA3084000A168A158C250A12C1
:100038008A113230FD001E30FE005030FF001030B3
:1000480084000A168A158C250A128A118313EC304B
:10005800FD001D30FE007630FF00DA3084000A16FD
:100068008A158C250A128A110A168A11A0210A12E9
:100078008A11ED000A168A11A1210A128A11EE00CE
:10008800831790308400CA300A168A1510250A1280
:100098008A118313A0308400DA300A168A151025D5
:1000A8000A128A115B3084006D300A168A151025F1
:1000B8000A128A11F801F901FA01FB0183010A16F3
:1000C8008A11852D83120313B000831603135A086F
:1000D8005B040319702871280629D130F6000A1626
:1000E8008A15ED250A128A110F308316031353055A
:1000F80083120313A40083160313530883120313F4
:10010800A50004300310A50CFF3E031D8628250812
:100118000739A600A7012608F2002708F3000A30CD
:10012800F4000030F5000A168A1572260A128A11A0
:100138008312031324087207F800003003180130F3
:100148007307F9000F308316031352058312031344
:10015800A40083160313520883120313A500043066
:100168000310A50CFF3E031DB42825080739A60077
:10017800A7012608F2002708F3000A30F40000302F
:10018800F5000A168A1572260A128A1183120313B9
:1001980024087207FA000030031801307307FB00C7
:1001A8000F3083160313510583120313A40083161B
:1001B8000313510883120313A50004300310A50C80
:1001C800FF3E031DE22825080339A600A7012608DB
:1001D800F2002708F3000A30F4000030F5000A1690
:1001E8008A1572260A128A118312031324087207C9
:1001F800DB000030031801307307DC00831603139B
:10020800DA01DB01D130F6000A168A15ED250A124B
:100218008A110F3083160313530583120313A400A6
:1002280083160313530883120313A5000430031025
:10023800A50CFF3E031D1B2925080739A600A701A9
:100248002608F2002708F3000A30F4000030F50011
:100258000A168A1572260A128A11831203132408B1
:10026800720783160313A2000030031801307307C6
:10027800A3003F30831203133006031D4429452988
:1002880049293F3083160313E4003D3083123006BA
:10029800031D4F2950297329300883160313640658
:1002A8000319572958297329831203133008831611
:1002B8000313E400831203136908031964296529E9
:1002C80071296903031969296A296C29AF016E2903
:1002D8000230AF002F08E90073290130E9003E30F1
:1002E80083123006031D79297A29D7293008831605
:1002F80003136406031981298229D729831203135A
:10030800300883160313E400831203136908031DDE
:100318008E298F29A7291830F2000030F3005B08D6
:10032800013EF4005C080318013E003EF5000A1681
:100338008A1121220A128A11730883120313DC001E
:100348007208DB00D7296903031DAB29AC29C22930
:100358003C30F2000030F3007A08013EF4007B08DC
:100368000318013E003EF5000A168A1121220A12DE
:100378008A117308FB007208FA00D7293C30F20092
:100388000030F3007808013EF40079080318013EB4
:10039800003EF5000A168A1121220A128A117308F2
:1003A800F9007208F800493083120313A000903056
:1003B800A1008030A2000A168A159A270A128A110B
:1003C800C330F7000A30F2000030F3008312031341
:1003D8005C08F5005B08F4000A168A11D4220A1298
:1003E8008A117208303E0A168A11A2210A128A114D
:1003F800C430F7000A30F2000030F3008312031310
:100408005C08F5005B08F4000A168A1121220A121A
:100418008A117208303E0A168A11A2210A128A111C
:10042800C530F7003A300A168A11A2210A128A1139
:10043800C630F7000A30F2000030F3007B08F50000
:100448007A08F4000A168A11D4220A128A1172084C
:10045800303E0A168A11A2210A128A11C730F70003
:100468000A30F2000030F3007B08F5007A08F40047
:100478000A168A1121220A128A117208303E0A16B7
:100488008A11A2210A128A11C830F7003A300A16D6
:100498008A11A2210A128A11C930F7000A30F20023
:1004A8000030F3007908F5007808F4000A168A117C
:1004B800D4220A128A117208303E0A168A11A22121
:1004C8000A128A11CA30F7000A30F2000030F3002D
:1004D8007908F5007808F4000A168A1121220A1210
:1004E8008A117208303E0A168A11A2210A128A114C
:1004F8008316031321082306031D842A20082206D5
:100508000319872A882AC82A2308A1002208A000DC
:100518008312031369080319922A932AA62A6903E6
:100528000319972A982A9D2A0930AA000030AB009F
:10053800A12A0630AA000030AB002B08A9002A081F
:10054800A800AA2A0330A8000030A9002808AE0095
:10055800831603132218B12AB22AB92AFF3083124C
:100568000313AC000030AD00BF2A20308312031300
:10057800AC000030AD002E08C03EF7002C080A166B
:100588008A11A2210A128A11373083120313300606
:10059800031DCF2AD02A7C2B0A30F2000030F3004A
:1005A8005C08F5005B08F4000A168A1121220A1279
:1005B8008A11720883120313A4007308A5000A3075
:1005C800F2000030F3005C08F5005B08F4000A163E
:1005D8008A11D4220A128A11720883120313A60000
:1005E80003300310A60DFF3E031DF52A0310260D48
:1005F8002404F70002300A168A152E260A128A11D8
:100608000A30F2000030F3007B08F5007A08F400A5
:100618000A168A1121220A128A11720883120313F8
:10062800A4007308A5000A30F2000030F3007B082C
:10063800F5007A08F4000A168A11D4220A128A11DF
:10064800720883120313A60003300310A60DFF3EA1
:10065800031D292B0310260D2404F70001300A1668
:100668008A152E260A128A110A30F2000030F30089
:100678007908F5007808F4000A168A1121220A126E
:100688008A11720883120313A4007308A5000A30A4
:10069800F2000030F3007908F5007808F4000A1633
:1006A8008A11D4220A128A11720883120313A6002F
:1006B80003300310A60DFF3E031D5D2B0310260D0E
:1006C8002404F70000300A168A152E260A128A1109
:1006D80083120313EB01013083160313DA00003091
:1006E800DB0083120313E9013F3083160313E40090
:1006F8002F3083123006031D822B832B912BEB01A5
:10070800013083160313DA000030DB008312031371
:10071800E9013F3083160313E40008008312031332
:10072800AF00831603133C083D04031D9C2B9D2B2F
:10073800232D043083120313A0009130A1008030D0
:10074800A2000A168A159A270A128A11831203131D
:1007580063086404031DB12BB22BBD2B2130A0000C
:100768000130A100C030A2000A168A159A270A1281
:100778008A110030831203136402043003196302E0
:100788000318C72BC82B742C831603134108831234
:1007980003136606031DD62B831603134008831222
:1007A800031365060319D92BDA2BFC2B660883166D
:1007B8000313C10083120313650883160313C000D3
:1007C800831203136518E92BEA2BEF2BFF30A700E0
:1007D8000030A800F32B2030A7000030A8006308E1
:1007E800C33EF70027080A168A11A2210A128A11A5
:1007F8008316031342084304031D032C042C352CD1
:100808003F08831203136606031D102C8316031377
:100818003E088312031365060319132C142C242C89
:10082800660883160313BF00831203136508831633
:100838000313BE000130BA070318BB0A0030BB0718
:100848000030831603133B020A3003193A02031CD3
:100858002E2C2F2C352C0330BC000030BD00BA01E3
:10086800BB013E30831203132F0603193C2C3D2C89
:10087800432C3D302F06031D422C432CE52D01301F
:1008880083160313C2000030C300BA01BB018312F0
:1008980003136308C33EF7002A300A168A11A221FF
:1008A8000A128A113E30831203132F0603195D2C96
:1008B8005E2C632C3130A9000030AA00672C303040
:1008C800A9000030AA006308C53E840029088317E0
:1008D80080000130E3070318E40A0030E407E52D3F
:1008E8006308C53E840083178001E430F200C530F8
:1008F800F3000A168A15BD260A128A1172087304B3
:10090800031D872C882CD02C753083120313A0006C
:100918009130A1008030A2000A168A159A270A127F
:100928008A11153083120313A0009030A100C03043
:10093800A2000A168A159A270A128A1127308312EA
:100948000313A6000D30A5002530A400A40BAA2C83
:10095800A50BAA2CA60BAA2CB12C023083120313C8
:10096800EB0083160313BC01BD0183120313E301DB
:10097800E40183160313C201C301BA01BB01831248
:100988000313660883160313BF0083120313650855
:1009980083160313BE00E52DFF3083160313DE070D
:1009A8000318DF0AFF30DF075E085F04031DDD2C34
:1009B800DE2CEF2C0230BC000030BD008312031384
:1009C800660883160313C50083120313650883168C
:1009D8000313C400E52DF33083120313A0009030F5
:1009E800A1008030A2000A168A159A270A128A11D5
:1009F800E23083120313A0009030A100C030A2009F
:100A08000A168A159A270A128A11CF30F700831618
:100A180003135E08303E0A168A11A2210A128A11AF
:100A2800403083120313A6006A30A5009730A40053
:100A3800A40B1C2DA50B1C2DA60B1C2DB92C0230AC
:100A48003C063D04031D292D2A2DC82D410883127B
:100A580003136606031D362D8316031340088312FD
:100A6800031365060319392D3A2DE52D66088316FB
:100A78000313C10083120313650883160313C00010
:100A88004408831203136502AB0083160313450859
:100A9800031C450A831203136602AC0000302C02C3
:100AA8003C3003192B0203185A2D5B2DAD2D3B301A
:100AB800A4002B082402AD002C090318013EAE0047
:100AC8006530A0009130A1008030A2000A168A1576
:100AD8009A270A128A11553083120313A000913005
:100AE800A100C030A2000A168A159A270A128A1194
:100AF800C930F7000A30F2000030F3008312031304
:100B08002E08F5002D08F4000A168A11D4220A12BC
:100B18008A117208303E0A168A11A2210A128A1115
:100B2800CA30F7000A30F2000030F30083120313D2
:100B38002E08F5002D08F4000A168A1121220A123F
:100B48008A117208303E0A168A11A2210A128A11E5
:100B5800E52D033083160313DE000030DF00831217
:100B68000313E301E40183160313BC01BD018312DF
:100B78000313660883160313BF0083120313650863
:100B880083160313BE00E52D03303C063D04031D08
:100B9800CE2DCF2DE52D3730831203132F06031DDD
:100BA800D62DD72DE52D83160313BC01BD01831265
:100BB8000313EB0183160313C201C301BA01BB017E
:100BC800C32C0800831203133508BF008030BF050B
:100BD8003508B6003607C600B41FF32DF42DF52DE1
:100BE800461446080319F92DFA2D0A2E460A031D44
:100BF800FE2DFF2D072E0030B5000030B400003068
:100C0800B3000030B200B417B501122E0030B500A1
:100C18000030B4000030B3000030B2003108803931
:100C2800BF063108B6003607C700B01F1C2E1D2EA0
:100C38001E2E471447080319222E232E332E470A47
:100C4800031D272E282E302E0030B1000030B000B2
:100C58000030AF000030AE00B017B1013B2E0030BD
:100C6800B1000030B0000030AF000030AE003108F5
:100C780030042F042E04031D422E432E5A2E00301A
:100C8800B5000030B4000030B3000030B20080304E
:100C9800B4047F30B5043F08B5043508B100340802
:100CA800B0003308AF003208AE00AF2F4608031D6E
:100CB8005E2E5F2E682E0030B1000030B00000308C
:100CC800AF000030AE00AF2F4608B600B7013708B6
:100CD800B90047083602B800031CB90338087F3E3C
:100CE800C00039080318013E003EC1003508BE00A7
:100CF8003408BD003308BC003208BB000030B50022
:100D08000030B4000030B3000030B2000030C5003D
:100D18000030C4000030C3000030C200C701DC2E20
:100D280047080319982E992EB92E0130B6000310E2
:100D3800BB0DBC0DBD0DBE0DB60B9B2E0130B60014
:100D48000310B20DB30DB40DB50DB60BA42EC51F0F
:100D5800AE2EAF2EB02E32140130B6000310C20DE5
:100D6800C30DC40DC50DB60BB22E31083E02031DCE
:100D7800C72E30083D02031DC72E2F083C02031D55
:100D8800C72E2E083B02031CCA2ECB2EDA2E45177F
:100D98002E08BB022F08031C2F0FBC023008031CAF
:100DA800300FBD023108031C310FBE020130C707E6
:100DB8001A304702031CE12EE22E942E3E083D0411
:100DC8003C043B040319E92EEA2E092F4214092F8B
:100DD8000130B6000310B20DB30DB40DB50DB60B4E
:100DE800EE2EC51FF82EF92EFA2E32140130B60059
:100DF8000310C20DC30DC40DC50DB60BFC2EFF307C
:100E0800C0070318C10AFF30C107B41F0C2F0D2FEC
:100E1800EC2EC701C51F112F122F2E2FFF304205B0
:100E2800B600FF304305B700FF304405B8007F30F7
:100E38004505B90039083804370436040319252F45
:100E4800262F292F0130C7002E2F321C2C2F2D2F93
:100E58002E2F262F47080319322F332F642F0130E6
:100E6800B207003003180130B3070030031801300F
:100E7800B407003003180130B507351C442F452F3F
:100E8800642F3208B6003308B7003408B8003508B4
:100E9800B9000130BA00390DB90CB80CB70CB60C52
:100EA800BA0B4F2F3908B5003808B4003708B3001B
:100EB8003608B2000130C0070318C10A0030C10764
:100EC8004108803AFF0080307F02031D6D2FFF30FC
:100ED8004002031C702F712F7F2FFF3083120313E2
:100EE800C0000030C1000030B5000030B400003050
:100EF800B3000030B200831203134108803AFF00A8
:100F080080307F02031D8A2F0130400203188D2F85
:100F18008E2F9B2F83120313C001C1010030B5002F
:100F28000030B4000030B3000030B200BF018312BB
:100F380003134008C600461CA22FA32FA52FB417E1
:100F4800A72F7F30B4054608B6000310360CB5004D
:100F58003F08B504512E08000B1DB32FB42FF02FF6
:100F68000B11831203130108083E81000130831618
:100F78000313C6070318C70A0030C7072030460600
:100F88004E3003194706031DCA2FCB2FF02F01300F
:100F980083120313E5070318E60A0030E607013059
:100FA80083160313E0020030031CE103E102C601CB
:100FB800C70100308312031366023C30031965022F
:100FC800031CE72FE82FF02FE501E6013B308316DD
:100FD8000313E0000030E10071088A00700E8300FE
:100FE800FE0E7E0E09000A168A1558250A128A1165
:080FF800831603131115080014
:10100200143083120313A0009030A1008030A2009C
:101012000A168A159A270A128A15143083120313A4
:10102200A0009030A100C030A2000A168A159A27AB
:101032000A128A1508008316031367080319222867
:1010420023283D296B3083120313A0009030A100A6
:101052008030A2000A168A159A270A128A155A3077
:1010620083120313A0009030A100C030A2000A1620
:101072008A159A270A128A150030F3009030F4007C
:101082000A168A1597260A128A1583120313B601C5
:10109200B7011E29831203133708F3003608F20042
:1010A2000A30F4000030F5000A168A1572260A1278
:1010B2008A15730883120313B9007208B800360840
:1010C200303EA5002030A60038080A168A151027DF
:1010D2000A128A1583120313A7000130B8070318F6
:1010E200B90A0030B90738080A168A1510270A12F9
:1010F2008A1583120313A8000130B8070318B90A2E
:101102000030B9073A30A90038080A168A151027A4
:101112000A128A1583120313AA000130B8070318B2
:10112200B90A0030B90738080A168A1510270A12B8
:101132008A1583120313AB000130B8070318B90AEA
:101142000030B9073A30AC0038080A168A15102761
:101152000A128A1583120313AD000130B80703186F
:10116200B90A0030B90738080A168A1510270A1278
:101172008A1583120313AE000130B8070318B90AA7
:101182000030B9072030AF0038080A168A15102738
:101192000A128A1583120313B0000130B80703182C
:1011A200B90A0030B90738080A168A1510270A1238
:1011B2008A1583120313B1000130B8070318B90A64
:1011C2000030B9072030B20038080A168A151027F5
:1011D2000A128A1583120313B3000130B8070318E9
:1011E200B90A0030B90738080A168A1510270A12F8
:1011F2008A1583120313B4000130B8070318B90A21
:101202000030B907B5012530F3000030F4000A16AA
:101212008A1597260A128A151030F3009030F400CE
:101222000A168A1597260A128A15013083120313A9
:10123200B6070318B70A0030B7073708803AA30089
:1012420080302302031D27296C083602031C2A2939
:101252002B294B28353083120313A0009130A100B3
:10126200C030A2000A168A159A270A128A15831616
:101272000313E701AC01AD012D0883120313A4008F
:10128200831603132C0883120313A300831603137C
:10129200AC0A0319AD0A4E30831203132402213023
:1012A20003192302031C562957295F29013083168B
:1012B2000313CD000130E700AC01AD010800831239
:1012C2000313A60002306B060319682969296E29E7
:1012D200013083160313EA00B32A831603136A0844
:1012E2000319742975298229FF3083120313ED0033
:1012F200FF30EE00E101E20183160313B201B301F4
:10130200EA01831203136D0A031D8B296E0A031D62
:101312008B298C29762A3E302606031D9129922993
:10132200AB296208803AFF0080307F02031D9B29AF
:101332000430610203189E299F29AB2983160313E7
:10134200B201B301013083120313E1070318E20A69
:101352000030E2073D30831203132606031DB22933
:10136200B329CC296208803AFF0080307F02031D36
:10137200BC2901306102031CBF29C029CC29831674
:101382000313B201B301FF3083120313E107031801
:10139200E20AFF30E2078316031332083304031D07
:1013A200D329D429642A0230F2000030F3008312D8
:1013B20003136208F5006108F4000A168A11CF23AC
:1013C2000A128A150310720D83160313B600730DE9
:1013D200B7003708803AFF0080307F02031DF329EF
:1013E20004303602031CF629F729FD29033083163F
:1013F2000313B6000030B7008316031336088312B6
:101402000313A4002407DA3E840083170008A00017
:10141200840A00088403A1008130A2000A168A15FA
:101422009A270A128A1583160313360883120313A6
:10143200A4002407DC3E840083170008A000840A6D
:1014420000088403A100C130A2000A168A159A2757
:101452000A128A158030F70020300A168A11A2215A
:101462000A128A15C030F70020300A168A11A2210A
:101472000A128A15831603133708831203136206AE
:10148200031D492A831603133608831203136106C8
:10149200031D4C2A4D2A562A8030F7003E300A1688
:1014A2008A11A2210A128A155E2AC030F7003E3044
:1014B2000A168A11A2210A128A1501308316031311
:1014C200B2000030B3003730831203132606031D27
:1014D2006B2A6C2A762A6208EE006108ED008316F8
:1014E2000313B401B501B201B30183126D0A031DE6
:1014F2007F2A6E0A03197E2A7F2AB32A6D086E0498
:10150200031D842A852A8C2A0330EB00FF30ED006C
:10151200FF30EE00B32A6D036E04031D912A922A56
:10152200952A0430EB00872A02306D066E04031DF3
:101532009B2A9C2A9F2A0530EB00872A03306D06DE
:101542006E04031DA52AA62AA92A0630EB00872AC3
:1015520004306D066E04031DAF2AB02AB32A073089
:10156200EB00872A080083120313B4006C08031DE2
:10157200BB2ABC2AF52A8316031369080319C22A57
:10158200C32AE02A253083120313A0009130A10060
:101592008030A2000A168A159A270A128A15153077
:1015A20083120313A0009130A100C030A2000A16DA
:1015B2008A159A270A128A1583160313E9012F3016
:1015C200831203133406031DE72AE82A2C2C013068
:1015D20083160313CF000130E900B001B1010130DD
:1015E200DC000030DD002C2C831603135C085D0444
:1015F2000319FC2AFD2A122B9E3083120313A0002A
:101602009030A1008030A2000A168A159A270A1289
:101612008A1583160313B001B1010130E900DC0120
:10162200DD012F30831203133406031D192B1A2BED
:101632001F2B013083160313CF00EE2A3D303406F0
:10164200031D242B252B372B003083160313310265
:101652000A3003193002031C2F2B302B372B0A3090
:10166200B0020030031CB103B102602B3E30831282
:101672003406031D3D2B3E2B602B6C08FF3EF2000F
:10168200FF3003180030F3000A30F4000030F50098
:101692000A168A1572260A128A157308831603130C
:1016A2003102031D562B720830020318592B5A2B94
:1016B200602B0A30B0070318B10A0030B107831655
:1016C2000313310883120313B60083160313300881
:1016D20083120313B5000A30F2000030F3008316C0
:1016E20003133108F5003008F4000A168A11D422D7
:1016F2000A128A157208303E83120313A3002030A7
:10170200A40035080A168A1510270A128A158312B0
:101712000313A5000130B5070318B60A0030B60757
:1017220035080A168A1510270A128A15831203131E
:10173200A6000130B5070318B60A0030B6073A30E2
:10174200A70035080A168A1510270A128A1583126D
:101752000313A8000130B5070318B60A0030B60714
:1017620035080A168A1510270A128A1583120313DE
:10177200A9000130B5070318B60A0030B6073A309F
:10178200AA0035080A168A1510270A128A1583122A
:101792000313AB000130B5070318B60A0030B607D1
:1017A20035080A168A1510270A128A15831203139E
:1017B200AC000130B5070318B60A0030B607203076
:1017C200AD0035080A168A1510270A128A158312E7
:1017D2000313AE000130B5070318B60A0030B6078E
:1017E20035080A168A1510270A128A15831203135E
:1017F200AF000130B5070318B60A0030B607203033
:10180200B00035080A168A1510270A128A158312A3
:101812000313B1000130B5070318B60A0030B6074A
:1018220035080A168A1510270A128A15831203131D
:10183200B2000130B5070318B60A0030B607B3018B
:101842002330A0000030A100C030A2000A168A1581
:101852009A270A128A15080083120313D9006B080B
:101862000319342C352C412CFF3083160313E2006C
:10187200FF30E3000A128A1501200A128A15E02DB0
:10188200D730F6000A168A15ED250A128A15D730C6
:10189200F6000A168A1118230A128A15B230F200CB
:1018A200D730F3000A168A119A240A128A153E309A
:1018B200831203135906031D5F2C602C652C07301D
:1018C200E7000030E8009C2C3D305906031D6A2CCD
:1018D2006B2C812C6808803AFF0080307F02031D48
:1018E200742C063067020318772C782C9C2C01305C
:1018F20083120313E7070318E80A0030E8079C2C59
:101902003B305906031D862C872C9C2C6808803A94
:10191200FF0080307F02031D902C02306702031CFF
:10192200932C942C9C2CFF3083120313E70703188B
:10193200E80AFF30E80700300A168A15AF250A12B6
:101942008A15720883120313D2007308D300D401DC
:10195200D5015508A3005408A2005308A10052085B
:10196200A00000300A168A113A260A128A1583123A
:1019720003132308B5002208B4002108B30020088D
:10198200B2004130B1002330B000D730AF000A308E
:10199200AE000A128A11E6250A128A15831203136F
:1019A2003108CB003008CA002F08C9002E08C80031
:1019B2000A168A110F250A128A158312031349087F
:1019C20083160313CB0083120313480883160313F1
:1019D200CA000A30F2000030F3004B08F5004A0852
:1019E200F4000A168A11D4220A128A157208303EAD
:1019F20083160313D4000A30F2000030F3004B08C0
:101A0200F5004A08F4000A168A1121220A128A15E0
:101A12007208303E83160313D50063088312031342
:101A22006806031D1A2D831603136208831203131B
:101A3200670603191D2D1E2D3F2D6708D200520780
:101A4200CA3E840083170008A000840A00088403A9
:101A5200A100B230A200D430A3000A168A11F026E7
:101A62000A128A1583120313680883160313E3000C
:101A720083120313670883160313E20020308316D0
:101A82000317A1005430A2004930A3004D30A40036
:101A92004530A5002030A6002030A7002030A80045
:101AA2002030A9002030AA004530AB005630AC00EF
:101AB2002030AD002030AE005330AF005030B000C7
:101AC200B10132089000330891003A309200350893
:101AD2009300360894003A30950038089600390889
:101AE2009700203098002030990083120313670872
:101AF200D2005207CA3E840083170008D300840A2A
:101B02000008D4005408FF00530884000A168A15FE
:101B120000200A128A15831603179A0001308312D5
:101B22000313D2006708D3005307CA3E8400831709
:101B32000008D400840A0008D50052085407D700D0
:101B42005508D6000318D60AD21BD6035608D80069
:101B52005808FF00570884000A168A1500200A1246
:101B62008A15831603179B0020309C0020309D00AD
:101B7200831603135408831603179E008316031358
:101B82005508831603179F00A001A1308312031387
:101B9200A0000130A1008030A2000A168A159A27FF
:101BA2000A128A15903083120313A0000130A1009B
:101BB200C030A2000A168A159A270A128A1508004E
:101BC20083120313AE003F302E06031DE92DEA2DCA
:101BD200EC2D3F30EA008316031324082504031D6D
:101BE200F32DF42D752F66080319F82DF92D092E02
:101BF200043083120313A0009130A1008030A200B0
:101C02000A168A159A270A128A1583160313E60101
:101C1200831203135F086004031D102E112E1C2E65
:101C22001030A0000130A100C030A2000A168A15AF
:101C32009A270A128A1500308312031360020430B5
:101C420003195F020318262E272E972E83160313DD
:101C52002B08831203136606031D352E8316031306
:101C62002A088312031365060319382E392E5B2EB8
:101C7200660883160313AB008312031365088316E9
:101C82000313AA00831203136518482E492E4E2E01
:101C9200FF30A6000030A700522E2030A6000030F0
:101CA200A7005F08C33EF70026080A168A11A22180
:101CB2000A128A153E30831203132E060319622E6E
:101CC200632E692E3D302E06031D682E692E972E37
:101CD2002E086A0603196E2E6F2E972E2E08EA0022
:101CE2005F08C33EF7002A300A168A11A2210A129F
:101CF2008A153E30831203132E060319812E822E7B
:101D0200872E3130A8000030A9008B2E3030A80079
:101D12000030A9005F08C03E8400280883178000B5
:101D22000130DF070318E00A0030E00704305F06E5
:101D32006004031D9D2E9E2EA12E83160317C4013F
:101D42000430831203135F066004031DA92EAA2E1A
:101D5200BA2E5D085E04031DAF2EB02EBA2E6608A1
:101D620083160313A9008312031365088316031352
:101D7200A800043083125F066004031DC12EC22E28
:101D8200652F00305E02043003195D020318CA2E6B
:101D9200CB2E652F8316031365080319D12ED22E7D
:101DA200E22E7C3083120313A0009030A100803019
:101DB200A2000A168A159A270A128A158316031395
:101DC200E501831203135D085E04031DE92EEA2E6A
:101DD200F52E1030A0000130A100C030A2000A167A
:101DE2008A159A270A128A15831603132908831261
:101DF20003136606031D032F831603132808831299
:101E0200031365060319062F072F292F6608831669
:101E12000313A90083120313650883160313A80092
:101E2200831203136518162F172F1C2FFF30AA00D9
:101E32000030AB00202F2030AA000030AB005D083C
:101E4200C33EF7002A080A168A11A2210A128A152D
:101E52003E30831203132E060319302F312F372FF2
:101E62003D302E06031D362F372F652F2E086A06AA
:101E720003193C2F3D2F652F2E08EA005D08C33E53
:101E8200F7002A300A168A11A2210A128A153E3058
:101E9200831203132E0603194F2F502F552F313063
:101EA200AC000030AD00592F3030AC000030AD0036
:101EB2005D08BB3E84002C08831780000130DD07DB
:101EC2000318DE0A0030DE0704305D065E04031DDF
:101ED2006B2F6C2F752F83160317BF0101308316EA
:101EE2000313A4000030A500831603132403250462
:101EF200031D7C2F7D2FFF2FC030F200BB30F3007B
:101F02000A168A15BD260A128A1572087304031D61
:101F12008B2F8C2FA32FE430F200C030F3000A166F
:101F22008A1565250A128A15253083120313A0002B
:101F32009030A1008030A2000A168A159A270A1250
:101F42008A15B02FF33083120313A0009030A10042
:101F52008030A2000A168A159A270A128A151330AF
:101F620083120313A0009030A100C030A2000A1611
:101F72008A159A270A128A1583160313260827043C
:101F8200031DC42FC52FD12F831203136608831696
:101F92000313A70083120313650883160313A60015
:101FA2002608831203136502A4008316031327086D
:101FB200031C270A831203136602A50000302502C0
:101FC200023003192402031CE72FE82FFF2F0130F0
:101FD20083160313CC00A401A50183120313DD01B0
:101FE200DE01DF01E001013083160313E500E600A4
:101FF200A601A7013F3083120313EA00080023342D
:102002002034543449344D3445342034203420347F
:1020120020342034453456342034533450340D3473
:102022000A34003420342034203420342034203444
:1020320020342034203420342034203420342034FE
:102042002034203420340034503441345334533457
:1020520057344434203449345334203443344834DC
:1020620041344E344734453444340034203420342F
:10207200563449344534573420344C344F34473481
:1020820020342034203420342034203420340034CE
:1020920020345334453454342034543449344D3488
:1020A2004534203420342034203420342034203469
:1020B20000342034203444344F3457344E344C34BA
:1020C2004F344134443449344E344734203420347C
:1020D20020340034203420345434483445342034FD
:1020E2004C344F3447345334203441345234453421
:1020F200203420340034523445342D3445344E34A7
:1021020054344534523420345034413453345334EB
:1021120057344434203400344C344F34473453342D
:102122002034413452344534203443344C34453421
:10213200413452344534443400342334203420347E
:102142002034543449344D3445342034203420343E
:10215200453456342034533450340034203420343F
:102162005334453454342034543449344D34453492
:1021720020342034203420342034203400342034DD
:10218200203443344C3445344134523420344C34BA
:102192004F34473420342034203420342034003467
:1021A2002034203444344F3457344E344C344F347A
:1021B2004134443420344C344F34473420342034B6
:1021C2000034203441345434543445344D34503482
:1021D2005434533420344C3445344634543420344B
:1021E200203400342034573452344F344E34473480
:1021F2002034503441345334533457344F345234EE
:10220200443420340034203445344E34543445347C
:1022120052342034503441345334533457344F34CD
:1022220052344434203400342034203420345034A6
:1022320052344534533453342034533457343534C0
:10224200203420342034003420344E344F342034AF
:102252004C344F3447345334203446344F3455349D
:102262004E34443420340034203444344F34573410
:102272004E344C344F3441344434203444344F349B
:102282004E3445342034003420342034433448342E
:1022920041344E344734453420345034413453347D
:1022A2005334573444340034573441344934543469
:1022B200203446344F3452342034203420342034F5
:1022C200533445344334003459344F345534203474
:1022D200413452344534203442344C344F34433444
:1022E2004B34453444340034203420344C344F349D
:1022F200473449344E342034533455344334433410
:102302004534533453340034433420340034473496
:1023120031340034473432340034473433340034F7
:1023220047343434003447344E3400344F344E345E
:0823320000344734523400343A
:10234000FF34FF3483120313A300F20177080A1647
:102350008A11EB210A168A11F201F20A8312031381
:1023600023080A168A11EB210A168A110800831223
:10237000031394152808AC002908AD002A08AE0004
:102380002B08AF0002300310AC0DAD0DAE0DAF0D3C
:10239000FF3E031DC3292F08A3002E08A2002D080D
:1023A000A1002C08A0000130A7003130A6002D307C
:1023B000A5000030A4000A168A1134240A168A11D6
:1023C000831203132008FF3E831603139300831226
:1023D000031394160800F5007218EF29F3298312ED
:1023E00003130915F6298312031309117508F0392F
:1023F00088008914A630F300F30BFC290000831237
:102400000313891075080F39F30003300310F30D1F
:10241000FF3E031D062A0310730D88008914A630A1
:10242000F300F30B112A00008312031389101B30F1
:10243000F4009E30F300F30B1B2AF40B1B2A000060
:102440000800720873040319262A272A542A013027
:10245000F600332A01300310F20DF30DFF3E031D89
:102460002B2A0130F607F31F362A372A2A2A730847
:102470007502031D3D2A72087402031C402A412A7A
:10248000472A7208F4027308031CF503F5020130B1
:102490000310F30CF20CFF3E031D482A0130F60234
:1024A000031D532A542A372A7508F3007408F200D2
:1024B00008000A168A1509250A168A110A168A15AD
:1024C00042250A168A110A168A1503250A168A1148
:1024D000003083120313AB000130AA008630A9003C
:1024E000A030A8000A168A11B7210A168A110030F6
:1024F00083120313AB000030AA002530A9008030FE
:10250000A8000A168A15CD270A168A110A168A15F6
:102510009B250A168A110A168A154D250A168A1154
:102520008B1708008316031368080319982A992A41
:10253000BD2A83120313EC0183160313C801C901DA
:102540008D3083120313A0009030A1008030A200D0
:102550000A168A159A270A168A1114308312031351
:10256000A0009030A100C030A2000A168A159A2758
:102570000A168A1183160313E8012F08F7002E08A4
:10258000F600AE0A0319AF0A4E3077022130031964
:102590007602031CCC2ACD2AD32A0130CE00AE010C
:1025A000AF010130E800080083120313A001A1016C
:1025B000720873040319DD2ADE2A132B0130A200EE
:1025C000EA2A01300310F20DF30DFF3E031DE22A4B
:1025D0000130A207F31FED2AEE2AE12A0130031091
:1025E000A00DA10DFF3E031DEF2A73087502031D08
:1025F000FB2A72087402031CFE2AFF2A062B7208AB
:10260000F4027308031CF503F502201401300310D3
:10261000F30CF20CFF3E031D072B0130A202031D39
:10262000122B132BEE2A2108F3002008F2000800D9
:102630007608840083130008F70004300310F70CB9
:10264000FF3E031D1E2B77080339303E8316031708
:10265000B2007608840000080F39303EB3003A30EB
:10266000B400760A84000008F70004300310F70C69
:10267000FF3E031D362B77080739303EB500760A3A
:10268000840000080F39303EB6003A30B7007608B3
:10269000023E84000008F70004300310F70CFF3EF0
:1026A000031D4D2B77080739303EB8007608023EEF
:1026B000840000080F39303EB900BA01B2308312ED
:1026C0000313A0000130A100C030A2000A168A1531
:1026D0009A270A168A110800C330F700CD30F60099
:1026E000F60B702BF70B702BF20133300A168A11A0
:1026F000EB210A168A111B30F7009E30F600F60B0C
:102700007F2BF70B7F2B0000F20133300A168A1162
:10271000EB210A168A11A630F600F60B8D2B00006D
:10272000F20133300A168A11EB210A168A11982B0E
:10273000992B0000F20102300A168A11EB210A16C9
:102740008A11A630F600F60BA32B0000F201283008
:102750000A168A11EB210A168A11A630F600F60B2A
:10276000AF2B0000F20101300A168A11EB210A1684
:102770008A110430F7003D30F600F60BBD2BF70B45
:10278000BD2BC22BF2010C300A168A11EB210A165E
:102790008A11A630F600F60BCB2B0000080083123E
:1027A0000313A101F31FD52BD62BDD2BF209F3095F
:1027B000F20A0319F30A0130A100F51FE02BE12B07
:1027C000E82BF409F509F40A0319F50A0130A1060A
:1027D000A201A301720873040319EF2BF02B252C1F
:1027E0000130A000FC2B01300310F20DF30DFF3E71
:1027F000031DF42B0130A007F31FFF2B002CF32B3C
:1028000001300310A20DA30DFF3E031D012C730820
:102810007502031D0D2C72087402031C102C112C60
:10282000182C7208F4027308031CF503F502221435
:1028300001300310F30CF20CFF3E031D192C013084
:10284000A002031D242C252C002C21080319292C5F
:102850002A2C2F2CA209A309A20A0319A30A2308D0
:10286000F3002208F20008000030F6000030F50006
:102870000030F4000030F300831203132308220415
:10288000210420040319452C462C912C0130F7001B
:10289000542C0130F2000310A00DA10DA20DA30DC8
:1028A000F20B4B2C0130F707A31F572C582C492C47
:1028B0000130F2000310F30DF40DF50DF60DF20BDF
:1028C0005A2C23082702031D6F2C22082602031D01
:1028D0006F2C21082502031D6F2C20082402031CE5
:1028E000722C732C822C2008A4022108031C210FB7
:1028F000A5022208031C220FA6022308031C230F93
:10290000A702731401300310A30CA20CA10CA00C9D
:10291000FF3E031D832C0130F702031D902C912CE8
:10292000582C7608A3007508A2007408A10073084B
:10293000A00008007308840083130008F40004302A
:102940000310F40CFF3E031DA02C74080339303E25
:10295000F5007208840075088317800073088400EE
:10296000831300080F39303EF400720A84007408A3
:10297000831780007208023E84003A308000730A98
:10298000840083130008F40004300310F40CFF3EAD
:10299000031DC52C74080739303EF5007208033E4C
:1029A0008400750883178000730A8400831300086D
:1029B0000F39303EF4007208043E84007408831717
:1029C00080007208053E84003A3080007308023EA1
:1029D000840083130008F40004300310F40CFF3E5D
:1029E000031DED2C74080739303EF5007208063ED1
:1029F00084007508831780007308023E84008313E7
:102A000000080F39303EF4007208073E8400740855
:102A1000831780007208083E8400800108000310BC
:102A2000831203134A0D4B0DD1005108031D192DBC
:102A30001A2D232D0030CB000030CA000030C90011
:102A40000030C800842D4808CC004908CD004A0851
:102A5000CE004B08CF001F300310CF0CCE0CCD0C96
:102A6000CC0CFF3E031D2C2D4C08D000CA17FF30A4
:102A7000C805FF30C905FF30CA050030CB059630C8
:102A8000D102D11F442D452D5D2D5108803A973E2E
:102A900003184B2D4C2D4D2D1A2D01300310CB0C4E
:102AA000CA0CC90CC80CFF3E031D4E2D0130D107C6
:102AB000031D5B2D5C2D4D2D742D20305102031C08
:102AC000622D632D6F2D1A2D0130CC000310C80D1F
:102AD000C90DCA0DCB0DCC0B662D0130D1025108AA
:102AE000031D732D742D642D50080319782D792D35
:102AF000842DC809C909CA09CB09C80A0319C90A1A
:102B00000319CA0A0319CB0A08000A168A115922A6
:102B10000A168A1101300A168A153B270A168A11ED
:102B200083120313DA00831603134F080319992D38
:102B30009A2DA12D023083120313EB008316031389
:102B4000CF014E080319A52DA62DAD2D02308312FD
:102B50000313EB0083160313CE014D080319B12DA7
:102B6000B22DB92D023083120313EB008316031329
:102B7000CD014C080319BD2DBE2DC42D83120313A6
:102B8000EB0183160313CC013730831203135A066B
:102B9000031DCB2DCC2DD32D6B08031DD02DD12D96
:102BA000D32D0130EB006B08031DD72DD82DDF2D61
:102BB0005A080A128A152D240A168A118A2D6B03C7
:102BC000031DE32DE42DEB2D5A080A128A119223DE
:102BD0000A168A118A2D02306B06031DF02DF12D85
:102BE000F82D5A080A128A1560210A168A118A2DB0
:102BF00003306B06031DFD2DFE2D052E5A080A120B
:102C00008A15B4220A168A118A2D04306B06031D18
:102C10000A2E0B2E112E0A168A1192220A168A11DA
:102C20008A2D05306B06031D162E172E1D2E0A1237
:102C30008A151C200A168A118A2D06306B06031D80
:102C4000222E232E2A2E5A080A128A1166200A16CC
:102C50008A118A2D07306B06031D2F2E302E8A2DE8
:102C60005A080A128A15E1250A168A118A2D0A12B3
:102C70008A110C2883120313A80028080319412E77
:102C8000422E562EA31F452E462E562E2009AA0050
:102C90002109AB002209AC002309AD00AA0A0319DF
:102CA000AB0A0319AC0A0319AD0A5E2E2308AD0066
:102CB0002208AC002108AB002008AA002308220447
:102CC00021042004031D652E662E6F2E0030A30004
:102CD0000030A2000030A1000030A000EF2E96309E
:102CE000A9007D2E0130A90701300310AD0CAC0CFA
:102CF000AB0CAA0CFF3E031D752EFE302D05031DE7
:102D0000822E832E722E9D2E0130A9070130AA0734
:102D1000003003180130AB07003003180130AC0756
:102D2000003003180130AD0701300310AD0CAC0CBE
:102D3000AB0CAA0CFF3E031D952EFF302D05031D85
:102D4000A22EA32E842EAF2E0130A9020130A400A2
:102D50000310AA0DAB0DAC0DAD0DA40BA82EAC1B32
:102D6000B22EB32EB92E023029020318B82EB92E76
:102D7000A42E2918BC2EBD2EC52EFF30AA05FF306B
:102D8000AB057F30AC05FF30AD050310A90C290859
:102D9000A400A501A601A70118300310A40DA50DDC
:102DA000A60DA70DFF3E031DCD2E2408AA0425085D
:102DB000AB042608AC042708AD0428080319E12E4B
:102DC000E22EE72EA31FE52EE62EE72EAD172D08E7
:102DD000A3002C08A2002B08A1002A08A0000800CC
:102DE00083160313490883120313A90083160313E0
:102DF000480883120313A8002208840083170008E0
:102E0000F30028080A168A156A270A168A11013063
:102E100083120313A8070318A90A0030A907220A7E
:102E2000840083170008F30028080A168A156A2709
:102E30000A168A11013083120313A8070318A90A7E
:102E40000030A9072208033E840083170008F3001E
:102E500028080A168A156A270A168A110130831271
:102E60000313A8070318A90A0030A9072208043E83
:102E7000840083170008F30028080A168A156A27B9
:102E80000A168A11013083120313A8070318A90A2E
:102E90000030A9072208063E840083170008F300CB
:102EA00028080A168A156A270A168A110130831221
:102EB0000313A8070318A90A0030A9072208073E30
:102EC000840083170008F30028080A168A156A2769
:102ED0000A168A11013083120313A8070318A90ADE
:102EE0000030A9072108FF00200884000A168A156F
:102EF00000200A168A11F30028080A168A156A2784
:102F00000A168A11013083120313A8070318A90AAD
:102F10000030A9070130A40024082007A6002108DA
:102F2000A5000318A50AA41BA5032508A7002708C8
:102F3000FF00260884000A168A1500200A168A1146
:102F4000F30028080A168A156A270A168A11013022
:102F500083120313A8070318A90A0030A90723083E
:102F6000840083130008F30028080A168A156A27CC
:102F70000A168A11013083120313A8070318A90A3D
:102F80000030A907230A840083130008F3002808EF
:102F90000A168A156A270A168A110130831203134A
:102FA000A8070318A90A0030A907003083160313E5
:102FB0004902643003194802031CDF2FE02FE22F7F
:102FC000C801C9010A30831203136C020318E92FE8
:102FD000EA2FEC2F0130EC070A3083160313C807E1
:102FE0000318C90A0030C9070030490264300319C8
:102FF0004802031CFC2FFD2FFF2FC801C901080048
:10300000FF1B0A2883137F1883170008840A0319FB
:10301000FF0A08007F087F398A000408840A031920
:04302000FF0A820021
:103A06008316031306083F3886000800831603133F
:103A16009F17831203131F14080064008001840A91
:103A26000406031900340406112D0A168A155825B2
:103A36000A168A1583160313111408000A128A112E
:103A4600F7270A168A150A168A1518250A168A15D8
:103A56000800F2000A168A1558250A168A157208F1
:103A66008312031393000800F200720883120313F3
:103A760099000C1E3F2D402D3C2D0C12080083167C
:103A860003138801091189100A168A116C230A1674
:103A96008A150800831603138112811506308312D6
:103AA600031381008B160B110800831603131419D8
:103AB6005D2D5E2D582D11081F39031D632D642DB4
:103AC600582D08007308F30A840083170008F400D1
:103AD6007208F20A8400740880000008031D742D21
:103AE600752D652D0800013400340134003403348B
:103AF60000343B340034FF34FF343F3401340134A6
:103B0600013401340134013401347E088A007F080F
:103B160082000A168A1588250A168A158000840AE4
:103B260004087D0603190034FF0A0319FE0A8C2DCA
:103B360000300A168A15E5260A168A15831203131B
:103B4600A4007F30A4052408F70000300A168A1561
:103B56002E260A168A150800F7007708F4000330A7
:103B66000310F40DFF3E031DB32D831203131F082C
:103B7600C73974049F001F151F19C22DC32DBF2DF1
:103B86001E08F600831603131E08F5007608F300D8
:103B96007508F200080097349134943491348834CF
:103BA60091348B3491348E349134913491349A34E7
:103BB60091348534913437349034C0349034D134D0
:103BC6009034AF3490344534913431343034313418
:103BD600303400347608840002300A168A15E52649
:103BE6000A168A1583138000760A840001300A16A5
:103BF6008A15E5260A168A15831380007608023E82
:103C0600840000300A168A15E5260A168A158313DB
:103C160080000800F2000A168A1558250A168A1529
:103C26008316031391150A168A1558250A168A153E
:103C3600831203131308F3007203031D232E242E8D
:103C4600282E8316031391162B2E83160313911217
:103C560011167308080083120313A3000A168A15A7
:103C660018250A168A15D0300A168A152C250A1622
:103C76008A158312031323080A168A152C250A1699
:103C86008A1577080A168A152C250A168A150A1225
:103C96008A11F7270A168A150800203420342034A2
:103CA600203420342034203420342034203420346E
:103CB600203420342034203420340034203420347E
:103CC600203420342034203420342034203420344E
:103CD6002034203420342034203420340034F601BB
:103CE600F701721C772E782E7E2E7408F6070318BD
:103CF600F70A7508F70701300310F40DF50DFF3EBE
:103D0600031D7F2E01300310F30CF20CFF3E031D42
:103D1600862E72087304031D912E922E742E770838
:103D2600F3007608F2000800AC2E7408FF00730852
:103D360084000A168A1500200A168A150A168A159C
:103D460037250A168A150130F3070318F40A0030DE
:103D5600F407740883120313FF00730884000A161D
:103D66008A1500200A168A15003A031DBB2EBC2EA2
:103D7600982E0800C22E0130F2070130F3077208B0
:103D86008400831700080319C92ECA2ED62E73087D
:103D960084000008F4007208840000087406031901
:103DA600D52ED62EBE2E730884000008F4007208A5
:103DB60084000008F50074087502F200F301031C84
:103DC600F3030800F4000A168A1518250A168A1540
:103DD600D0300A168A152C250A168A1574080A1672
:103DE6008A152C250A168A150A168A1521250A16F9
:103DF6008A15D1300A168A152C250A168A1500301E
:103E06000A168A150D260A168A15F5000A128A114F
:103E1600F7270A168A1575080800F4000A168A1587
:103E260018250A168A15A0300A168A152C250A1690
:103E36008A1574080A168A152C250A168A150A1672
:103E46008A1521250A168A15A1300A168A152C25E7
:103E56000A168A1500300A168A150D260A168A15BC
:103E6600F5000A128A11F7270A168A15750808003E
:103E7600F3007308031D402F412F462F83120313AF
:103E860006083F39692F3F30831203130605F200F7
:103E96003F3072060319502F512F5A2F83160313E2
:103EA6006B080319572F582F5A2FEB01412F3F301C
:103EB60083120605F2003F307206031D632F642F3E
:103EC600682F013083160313EB003F300800F6001D
:103ED6000A168A1518250A168A15A0300A168A1592
:103EE6002C250A168A1576080A168A152C250A160E
:103EF6008A1573080A168A152C250A168A150A12B7
:103F06008A11F7270A168A15B830F4000B30F50027
:103F16000130F4020030031CF503F502740A031D98
:103F2600982F750A031D982F992F8B2F0800F201E1
:103F36008312031322080A168A11EB210A168A1520
:103F4600BC2FF201F20A2108FF00200884000A169D
:103F56008A1500200A168A150A168A11EB210A16F6
:103F66008A15013083120313A0070318A10A003033
:103F7600A107831203132108FF00200884000A16F4
:103F86008A1500200A168A15003A031DCB2FCC2F5E
:103F9600A42F080083120313981718162808AC00DC
:103FA6002908AD002A08AE002B08AF000430031024
:103FB600AC0DAD0DAE0DAF0DFF3E031DDA2F2F0874
:103FC600A3002E08A2002D08A1002C08A000013095
:103FD600A7003130A6002D30A5000030A4000A1637
:103FE6008A1134240A168A15831203132008FF3E09
:0A3FF6008316031399008C160800CF
:02400E00FB3F76
:00000001FF
